S016000075617274206D657373656E6765722E7372656369
S11300000C942A000C9447000C9447000C9447006D
S11300100C9447000C9447000C9447000C94470040
S11300200C9447000C9447000C9447000C94470030
S11300300C9447000C9435010C9447000C94470031
S11300400C9447000C9447000C9447000C94470010
S11300500C94470011241FBECFE5D8E0DEBFCDBF0E
S113006010E0A0E6B0E0EAE0FBE002C005900D92EB
S1130070A23AB107D9F720E0A2EAB0E001C01D928C
S1130080A83BB207E1F70E94AF010C9483050C94DE
S1130090000092B39F7B92BB92B39F7D92BB85BBC2
S11300A082B3806882BB8FEC97E00197F1F700C0C0
S11300B0000082B38F7782BB089592B39F7B92BB7B
S11300C092B3906292BB85BB82B3806882BB8FEC93
S11300D097E00197F1F700C0000082B38F7782BBED
S11300E008950F931F93CF93DF938C01C0E0D0E06A
S11300F00CC00E945D002FEF80E792E02150804009
S11301009040E1F700C000002196F801EC0FFD1FBC
S113011080818111EECFDF91CF911F910F910895CE
S11301208FEF84BB81B3806E81BB8FE39CE9019721
S1130130F1F700C0000088E30E9449008EE00E94AD
S1130140490081E00E9449008FEC97E00197F1F7A4
S113015000C00000089517BA8FEF88BB8ABB8BBB21
S1130160089540E050E046C08BB361E070E0042E97
S113017002C0660F771F0A94E2F7E62F962F909538
S113018089238BBB20E030E02DC086B390E0022EA3
S113019002C0959587950A94E2F780FD21C08FE30C
S11301A09CE90197F1F700C0000086B390E0022EAD
S11301B002C0959587950A94E2F780FFF6CF8BB33A
S11301C0E82BEBBBC901880F991F280F391F220F99
S11301D0331F2D573F4FF901E40FF51F8081089518
S11301E02F5F3F4F2530310584F28BB3682B6BBBF7
S11301F04F5F5F4F463051050CF4B6CF80E0089551
S11302009C0140E050E060E271EA87E090E00E94E7
S113021062022150310930BD29B988E18AB986E8E2
S113022080BD08955D9BFECF8CB908950F931F93F5
S1130230CF93DF938C01C0E0D0E00CC00E94120188
S11302402FEF80E792E0215080409040E1F700C01A
S113025000002196F801EC0FFD1F80818111EECF83
S1130260DF91CF911F910F9108951F920F920FB6B6
S11302700F9211248F939F93EF93FF939CB18091DE
S1130280A3008331C0F4E091A300F0E0EC55FF4FEC
S113029090838091A3008F5F8093A3009A3059F4D8
S11302A0E091A300F0E0EC55FF4F108281E08093D1
S11302B0A2001092A300FF91EF919F918F910F9054
S11302C00FBE0F901F9018950F931F93CF93DF933A
S11302D0CDB7DEB764970FB6F894DEBF0FBECDBFBF
S11302E07F936F931F928F9380E690E09F938F93F9
S11302F01F9284E18F938E010F5F1F4F1F930F9303
S11303000E948B02C8010E9416010FB6F894DEBF4A
S11303100FBECDBF64960FB6F894DEBF0FBECDBF3F
S1130320DF91CF911F910F9108951F93CF93DF9386
S1130330EC01162F411102C080E801C080EC0E943C
S11303404900112311F08DE301C08DE20E945D008C
S1130350CE010E947100DF91CF911F910895CF9338
S1130360DF93CDB7DEB761970FB6F894DEBF0FBE4B
S1130370CDBF0E9490000E94AB0080E895E20E94ED
S113038000018AB180688AB9789487E690E00E9477
S1130390710080EC0E94490086E790E00E947100A1
S11303A02FEF84E39CE0215080409040E1F700C0AF
S11303B0000081E00E94490010E000E08091A2006A
S11303C0882309F1412F61E086EA90E00E949501BB
S11303D081E0111180E0F82E112369F02FEF83EDF5
S11303E090E3215080409040E1F700C0000081E09C
S11303F00E94490005C0111103C080EC0E9449000D
S11304001092A2001F2D0E94B1008823B9F28A32F3
S1130410B9F5E1E0F0E0EC0FFD1FE00FF11D1082F3
S1130420BE016F5F7F4F812F0E946401412F60E006
S1130430CE0101960E94950181E0111180E0082F00
S1130440112369F02FEF83ED90E321508040904019
S1130450E1F700C0000081E00E94490005C01111CD
S113046003C080EC0E94490040E150E060E270E08B
S1130470CE0101960E948402198A102F00E09ECFBB
S1130480003150F4E1E0F0E0EC0FFD1FE00FF11D4E
S113049080830F5F0E945D00003109F08FCF81E0FF
S11304A0111180E0082F112319F081E00E94490006
S11304B0112311F080E801C080EC0E944900102F44
S11304C000E07CCFA1E21A2EAA1BBB1BFD010DC0CC
S11304D0AA1FBB1FEE1FFF1FA217B307E407F507F0
S11304E020F0A21BB30BE40BF50B661F771F881FCC
S11304F0991F1A9469F760957095809590959B0162
S1130500AC01BD01CF010895DC0101C06D934150E0
S11305105040E0F70895AEE0B0E0E1E9F2E00C9479
S11305205A050D891E898F89988D26E02C831A839C
S1130530098397FF02C080E090E801979E838D8332
S1130540AE01455E5F4F698D7A8DCE0101960E94A2
S1130550BB024D815E8157FD0AC02F813885421749
S113056053070CF49A01F801E20FF31F10822E9640
S1130570E4E00C947605ABE0B0E0E1ECF2E00C943E
S11305804C056C017B018A01FC0117821682838170
S113059081FFCCC1CE0101963C01F6019381F701A4
S11305A093FD859193FF81917F01882309F4BAC15A
S11305B0853239F493FD859193FF81917F018532D2
S11305C029F4B60190E00E94B204E7CF912C212CCB
S11305D0312CFFE1F315D8F08B3279F038F4803206
S11305E079F08332A1F4232D20611DC08D3261F096
S11305F0803369F4232D216016C0832D8260382E48
S1130600E32DE4603E2E2AC0F32DF8601DC037FCB4
S11306102DC020ED280F2A3040F08E32B9F436FC7C
S113062081C1232D2064322E19C036FE06C08AE013
S1130630989E200D1124922E11C0EAE02E9E200DCA
S11306401124222EF32DF0623F2E08C08C3621F4A3
S1130650832D8068382E02C0883641F4F70193FD5B
S1130660859193FF81917F018111B3CF982F9F7D55
S11306709554933028F40C5F1F4F9FE399830DC06A
S1130680833631F0833771F0833509F059C021C0C6
S1130690F801808189830E5F1F4F88248394912CF5
S11306A0530113C02801F2E04F0E511CF801A08041
S11306B0B18036FE03C0692D70E002C06FEF7FEF9A
S11306C0C5010E94A7044C018201F32DFF773F2E40
S11306D016C0280122E0420E511CF801A080B1800E
S11306E036FE03C0692D70E002C06FEF7FEFC501D5
S11306F00E949C044C01F32DF0683F2E820133FCD0
S11307001BC0822D90E088169906B0F4B60180E2F1
S113071090E00E94B2042A94F4CFF50137FC85914D
S113072037FE81915F01B60190E00E94B20421106E
S11307302A9421E0821A91088114910471F7E8C087
S1130740843611F0893641F5F80137FE07C060811F
S11307507181828193810C5F1F4F08C06081718118
S1130760072E000C880B990B0E5F1F4FF32DFF769D
S11307703F2E97FF09C090958095709561957F4FA6
S11307808F4F9F4FF0683F2E2AE030E0A3010E9474
S1130790EE04882E861845C0853731F4232D2F7E2C
S11307A0B22E2AE030E025C0932D997FB92E8F36E2
S11307B0C1F018F4883579F0B5C0803719F088375E
S11307C021F0B0C0E92FE061BE2EB4FE0DC0FB2DB8
S11307D0F460BF2E09C034FE0AC0292F2660B22E51
S11307E006C028E030E005C020E130E002C020E18E
S11307F032E0F801B7FE07C0608171818281938184
S11308000C5F1F4F06C06081718180E090E00E5F35
S11308101F4FA3010E94EE04882E8618FB2DFF773C
S11308203F2E36FE0DC0232D2E7FA22E891458F4A0
S113083034FE0BC032FC09C0832D8E7EA82E05C069
S1130840B82CA32C03C0B82C01C0B92CA4FE0FC033
S1130850FE01E80DF11D8081803321F49A2D997EEB
S1130860A92E09C0A2FE06C0B394B39404C08A2D75
S1130870867809F0B394A3FC11C0A0FE06C0B2149C
S113088088F4280C922C9B180EC0B21460F4B601A4
S113089080E290E00E94B204B394F7CFB21418F44B
S11308A02B1802C0982C212CA4FE10C0B60180E3A2
S11308B090E00E94B204A2FE17C0A1FC03C088E726
S11308C090E002C088E590E0B6010CC08A2D8678DD
S11308D059F0A1FE02C08BE201C080E2A7FC8DE2C8
S11308E0B60190E00E94B204891438F4B60180E3A2
S11308F090E00E94B2049A94F7CF8A94F301E80D31
S1130900F11D8081B60190E00E94B2048110F5CF00
S1130910222009F442CEB60180E290E00E94B204A3
S11309202A94F6CFF6018681978102C08FEF9FEF5C
S11309302B96E2E10C946805FC010590615070402F
S11309400110D8F7809590958E0F9F1F0895FC0194
S11309506150704001900110D8F7809590958E0FEA
S11309609F1F08950F931F93CF93DF93FB01238160
S113097021FD03C08FEF9FEF2CC022FF16C04681DC
S11309805781248135814217530744F4A081B181F2
S11309909D012F5F3F4F318320838C9326813781C4
S11309A02F5F3F4F3783268314C08B01EC01FB017B
S11309B00084F185E02D0995892BE1F6D80116967E
S11309C08D919C911797019617969C938E931697E9
S11309D0CE01DF91CF911F910F910895FA01AA27BB
S11309E0283051F1203181F1E8946F936E7F6E5F6E
S11309F07F4F8F4F9F4FAF4FB1E03ED0B4E03CD01C
S1130A00670F781F891F9A1FA11D680F791F8A1FFE
S1130A10911DA11D6A0F711D811D911DA11D20D065
S1130A2009F468943F912AE0269F11243019305D1F
S1130A303193DEF6CF010895462F4770405D419310
S1130A40B3E00FD0C9F7F6CF462F4F70405D4A335D
S1130A5018F0495D31FD4052419302D0A9F7EACF25
S1130A60B4E0A6959795879577956795BA95C9F754
S1130A7000976105710508959B01AC010A2E069447
S1130A805795479537952795BA95C9F7620F731F00
S1130A90841F951FA01D08952F923F924F925F923D
S1130AA06F927F928F929F92AF92BF92CF92DF927A
S1130AB0EF92FF920F931F93CF93DF93CDB7DEB7DF
S1130AC0CA1BDB0B0FB6F894DEBF0FBECDBF099473
S1130AD02A88398848885F846E847D848C849B84CA
S1130AE0AA84B984C884DF80EE80FD800C811B81D8
S1130AF0AA81B981CE0FD11D0FB6F894DEBF0FBE07
S10D0B00CDBFED010895F894FFCF76
S1130B0A25642D25730A0055415254204D6573738B
S1130B1A656E67657200202020206A6F686E206601
S1130B2A6D73004142434445464748494A4B4C4D3C
S1130B3A4E4F505152535455565758595A3F2120E3
S1050B4A2A007B
S9030000FC
